{
    "_format": "hh-sol-artifact-1",
    "contractName": "grandidaToken",
    "sourceName": "contracts/grandidaToken.sol",
    "abi": [
        {
            "inputs": [],
            "stateMutability": "payable",
            "type": "constructor"
        },
        {
            "anonymous": false,
            "inputs": [
                {
                    "indexed": false,
                    "internalType": "uint32",
                    "name": "_amount",
                    "type": "uint32"
                }
            ],
            "name": "NewTokensMinted",
            "type": "event"
        },
        {
            "anonymous": false,
            "inputs": [
                {
                    "indexed": false,
                    "internalType": "address",
                    "name": "_account",
                    "type": "address"
                },
                {
                    "indexed": false,
                    "internalType": "uint256",
                    "name": "_value",
                    "type": "uint256"
                }
            ],
            "name": "assertInterestAmount",
            "type": "event"
        },
        {
            "inputs": [
                {
                    "internalType": "address",
                    "name": "",
                    "type": "address"
                }
            ],
            "name": "RegulatoryAgencies",
            "outputs": [
                {
                    "internalType": "bool",
                    "name": "",
                    "type": "bool"
                }
            ],
            "stateMutability": "view",
            "type": "function"
        },
        {
            "inputs": [
                {
                    "internalType": "address",
                    "name": "frozenAccount",
                    "type": "address"
                }
            ],
            "name": "UnfreezeAssets",
            "outputs": [],
            "stateMutability": "nonpayable",
            "type": "function"
        },
        {
            "inputs": [
                {
                    "internalType": "address",
                    "name": "",
                    "type": "address"
                }
            ],
            "name": "accounts",
            "outputs": [
                {
                    "internalType": "uint256",
                    "name": "balance",
                    "type": "uint256"
                },
                {
                    "internalType": "uint256",
                    "name": "accummulatedInterest",
                    "type": "uint256"
                },
                {
                    "internalType": "uint256",
                    "name": "interestBalance",
                    "type": "uint256"
                },
                {
                    "internalType": "uint256",
                    "name": "purchaseTime",
                    "type": "uint256"
                },
                {
                    "internalType": "bool",
                    "name": "calculatedInterest",
                    "type": "bool"
                },
                {
                    "internalType": "bool",
                    "name": "assertableInterest",
                    "type": "bool"
                },
                {
                    "internalType": "bool",
                    "name": "accountFrozen",
                    "type": "bool"
                }
            ],
            "stateMutability": "view",
            "type": "function"
        },
        {
            "inputs": [
                {
                    "internalType": "address",
                    "name": "newAddress",
                    "type": "address"
                }
            ],
            "name": "addToApprovedlist",
            "outputs": [],
            "stateMutability": "nonpayable",
            "type": "function"
        },
        {
            "inputs": [
                {
                    "internalType": "address",
                    "name": "newlyRegulated",
                    "type": "address"
                }
            ],
            "name": "addToRegs",
            "outputs": [],
            "stateMutability": "nonpayable",
            "type": "function"
        },
        {
            "inputs": [
                {
                    "internalType": "address",
                    "name": "",
                    "type": "address"
                }
            ],
            "name": "approvedInvestors",
            "outputs": [
                {
                    "internalType": "bool",
                    "name": "",
                    "type": "bool"
                }
            ],
            "stateMutability": "view",
            "type": "function"
        },
        {
            "inputs": [],
            "name": "assertInterestamount",
            "outputs": [],
            "stateMutability": "nonpayable",
            "type": "function"
        },
        {
            "inputs": [],
            "name": "availableTokens",
            "outputs": [
                {
                    "internalType": "uint256",
                    "name": "",
                    "type": "uint256"
                }
            ],
            "stateMutability": "view",
            "type": "function"
        },
        {
            "inputs": [],
            "name": "calculateInterestOwed",
            "outputs": [],
            "stateMutability": "nonpayable",
            "type": "function"
        },
        {
            "inputs": [],
            "name": "confirmIfAssertable",
            "outputs": [
                {
                    "internalType": "bool",
                    "name": "Assertable",
                    "type": "bool"
                }
            ],
            "stateMutability": "nonpayable",
            "type": "function"
        },
        {
            "inputs": [
                {
                    "internalType": "address",
                    "name": "crook",
                    "type": "address"
                },
                {
                    "internalType": "address",
                    "name": "receiver",
                    "type": "address"
                },
                {
                    "internalType": "uint32",
                    "name": "value",
                    "type": "uint32"
                }
            ],
            "name": "forceTokenTransfer",
            "outputs": [],
            "stateMutability": "nonpayable",
            "type": "function"
        },
        {
            "inputs": [
                {
                    "internalType": "address",
                    "name": "frozenAccount",
                    "type": "address"
                }
            ],
            "name": "freezsAssets",
            "outputs": [],
            "stateMutability": "nonpayable",
            "type": "function"
        },
        {
            "inputs": [
                {
                    "internalType": "uint32",
                    "name": "amountMinted",
                    "type": "uint32"
                }
            ],
            "name": "mintNewTokens",
            "outputs": [],
            "stateMutability": "nonpayable",
            "type": "function"
        },
        {
            "inputs": [],
            "name": "monthlyInterestRate",
            "outputs": [
                {
                    "internalType": "uint256",
                    "name": "",
                    "type": "uint256"
                }
            ],
            "stateMutability": "view",
            "type": "function"
        },
        {
            "inputs": [],
            "name": "name",
            "outputs": [
                {
                    "internalType": "string",
                    "name": "",
                    "type": "string"
                }
            ],
            "stateMutability": "view",
            "type": "function"
        },
        {
            "inputs": [
                {
                    "internalType": "uint256",
                    "name": "_interestRate",
                    "type": "uint256"
                }
            ],
            "name": "placeinterestRate",
            "outputs": [],
            "stateMutability": "nonpayable",
            "type": "function"
        },
        {
            "inputs": [],
            "name": "purchaseToken",
            "outputs": [],
            "stateMutability": "payable",
            "type": "function"
        },
        {
            "inputs": [],
            "name": "symbol",
            "outputs": [
                {
                    "internalType": "string",
                    "name": "",
                    "type": "string"
                }
            ],
            "stateMutability": "view",
            "type": "function"
        },
        {
            "inputs": [
                {
                    "internalType": "address",
                    "name": "receiver",
                    "type": "address"
                },
                {
                    "internalType": "uint32",
                    "name": "value",
                    "type": "uint32"
                }
            ],
            "name": "transfer",
            "outputs": [],
            "stateMutability": "nonpayable",
            "type": "function"
        },
        {
            "inputs": [],
            "name": "withdrawInterest",
            "outputs": [],
            "stateMutability": "nonpayable",
            "type": "function"
        }
    ],
    "bytecode": "0x60806040526040518060400160405280600e81526020017f4772616e6469646120546f6b656e000000000000000000000000000000000000815250600590805190602001906200005192919062000109565b506040518060400160405280600381526020017f4752440000000000000000000000000000000000000000000000000000000000815250600690805190602001906200009f92919062000109565b50603c600960006101000a81548163ffffffff021916908363ffffffff16021790555033600360006101000a81548173ffffffffffffffffffffffffffffffffffffffff021916908373ffffffffffffffffffffffffffffffffffffffff1602179055506200021e565b8280546200011790620001e8565b90600052602060002090601f0160209004810192826200013b576000855562000187565b82601f106200015657805160ff191683800117855562000187565b8280016001018555821562000187579182015b828111156200018657825182559160200191906001019062000169565b5b5090506200019691906200019a565b5090565b5b80821115620001b55760008160009055506001016200019b565b5090565b7f4e487b7100000000000000000000000000000000000000000000000000000000600052602260045260246000fd5b600060028204905060018216806200020157607f821691505b60208210811415620002185762000217620001b9565b5b50919050565b6131a7806200022e6000396000f3fe60806040526004361061011e5760003560e01c806393cbcedc116100a0578063a9c656a311610064578063a9c656a3146103a5578063b813e755146103bc578063d458fdd3146103e5578063df470110146103fc578063ff4f1715146104255761011e565b806393cbcedc146102f357806395d89b411461031e5780639e96f0ab14610349578063a2749e9f14610372578063a95c4d621461039b5761011e565b806369bb4dc2116100e757806369bb4dc2146101fc5780636e4c1f34146102275780637451055b1461026457806380097484146102a157806381ff5ddf146102ca5761011e565b806263750c1461012357806306fdde031461013a5780635ccd4e5a146101655780635e5c06e21461019057806362c47f87146101d3575b600080fd5b34801561012f57600080fd5b5061013861044e565b005b34801561014657600080fd5b5061014f61062e565b60405161015c919061239d565b60405180910390f35b34801561017157600080fd5b5061017a6106bc565b60405161018791906123da565b60405180910390f35b34801561019c57600080fd5b506101b760048036038101906101b29190612458565b610828565b6040516101ca979695949392919061249e565b60405180910390f35b3480156101df57600080fd5b506101fa60048036038101906101f59190612549565b610891565b005b34801561020857600080fd5b50610211610ca4565b60405161021e919061259c565b60405180910390f35b34801561023357600080fd5b5061024e60048036038101906102499190612458565b610caa565b60405161025b91906123da565b60405180910390f35b34801561027057600080fd5b5061028b60048036038101906102869190612458565b610cca565b60405161029891906123da565b60405180910390f35b3480156102ad57600080fd5b506102c860048036038101906102c391906125b7565b610cea565b005b3480156102d657600080fd5b506102f160048036038101906102ec9190612458565b611228565b005b3480156102ff57600080fd5b50610308611312565b604051610315919061259c565b60405180910390f35b34801561032a57600080fd5b50610333611318565b604051610340919061239d565b60405180910390f35b34801561035557600080fd5b50610370600480360381019061036b9190612458565b6113a6565b005b34801561037e57600080fd5b5061039960048036038101906103949190612623565b611496565b005b6103a3611530565b005b3480156103b157600080fd5b506103ba611a13565b005b3480156103c857600080fd5b506103e360048036038101906103de9190612458565b611d44565b005b3480156103f157600080fd5b506103fa611e2e565b005b34801561040857600080fd5b50610423600480360381019061041e9190612650565b612023565b005b34801561043157600080fd5b5061044c60048036038101906104479190612458565b612214565b005b60001515600260003373ffffffffffffffffffffffffffffffffffffffff1673ffffffffffffffffffffffffffffffffffffffff16815260200190815260200160002060040160029054906101000a900460ff161515146104e4576040517f08c379a00000000000000000000000000000000000000000000000000000000081526004016104db906126ef565b60405180910390fd5b6000600260003373ffffffffffffffffffffffffffffffffffffffff1673ffffffffffffffffffffffffffffffffffffffff1681526020019081526020016000206002015411610569576040517f08c379a000000000000000000000000000000000000000000000000000000000815260040161056090612781565b60405180910390fd5b7f6fec4a2bef457d351a1662d95f206b64b9bb9fb252768c89d4866809c3e51f6433600260003373ffffffffffffffffffffffffffffffffffffffff1673ffffffffffffffffffffffffffffffffffffffff168152602001908152602001600020600201546040516105dc9291906127b0565b60405180910390a16000600260003373ffffffffffffffffffffffffffffffffffffffff1673ffffffffffffffffffffffffffffffffffffffff16815260200190815260200160002060020181905550565b6005805461063b90612808565b80601f016020809104026020016040519081016040528092919081815260200182805461066790612808565b80156106b45780601f10610689576101008083540402835291602001916106b4565b820191906000526020600020905b81548152906001019060200180831161069757829003601f168201915b505050505081565b6000801515600260003373ffffffffffffffffffffffffffffffffffffffff1673ffffffffffffffffffffffffffffffffffffffff16815260200190815260200160002060040160029054906101000a900460ff16151514610753576040517f08c379a000000000000000000000000000000000000000000000000000000000815260040161074a906126ef565b60405180910390fd5b6000600960009054906101000a900463ffffffff1663ffffffff16600260003373ffffffffffffffffffffffffffffffffffffffff1673ffffffffffffffffffffffffffffffffffffffff168152602001908152602001600020600301546107bb9190612869565b421190508015610821576001600260003373ffffffffffffffffffffffffffffffffffffffff1673ffffffffffffffffffffffffffffffffffffffff16815260200190815260200160002060040160016101000a81548160ff0219169083151502179055505b8091505090565b60026020528060005260406000206000915090508060000154908060010154908060020154908060030154908060040160009054906101000a900460ff16908060040160019054906101000a900460ff16908060040160029054906101000a900460ff16905087565b600115156000803373ffffffffffffffffffffffffffffffffffffffff1673ffffffffffffffffffffffffffffffffffffffff16815260200190815260200160002060009054906101000a900460ff16151514610923576040517f08c379a000000000000000000000000000000000000000000000000000000000815260040161091a90612931565b60405180910390fd5b8063ffffffff16600260008473ffffffffffffffffffffffffffffffffffffffff1673ffffffffffffffffffffffffffffffffffffffff168152602001908152602001600020600001600082825461097b9190612869565b925050819055508063ffffffff16600260008573ffffffffffffffffffffffffffffffffffffffff1673ffffffffffffffffffffffffffffffffffffffff16815260200190815260200160002060000160008282546109da9190612951565b925050819055506000600260008573ffffffffffffffffffffffffffffffffffffffff1673ffffffffffffffffffffffffffffffffffffffff16815260200190815260200160002060000154600260008673ffffffffffffffffffffffffffffffffffffffff1673ffffffffffffffffffffffffffffffffffffffff168152602001908152602001600020600101548363ffffffff16610a7a9190612985565b610a849190612a0e565b905080600260008573ffffffffffffffffffffffffffffffffffffffff1673ffffffffffffffffffffffffffffffffffffffff1681526020019081526020016000206001016000828254610ad89190612869565b9250508190555080600260008673ffffffffffffffffffffffffffffffffffffffff1673ffffffffffffffffffffffffffffffffffffffff1681526020019081526020016000206001016000828254610b319190612951565b925050819055506000600260008673ffffffffffffffffffffffffffffffffffffffff1673ffffffffffffffffffffffffffffffffffffffff16815260200190815260200160002060030154600260008673ffffffffffffffffffffffffffffffffffffffff1673ffffffffffffffffffffffffffffffffffffffff168152602001908152602001600020600301541115610c1057600260008573ffffffffffffffffffffffffffffffffffffffff1673ffffffffffffffffffffffffffffffffffffffff168152602001908152602001600020600301549050610c56565b600260008673ffffffffffffffffffffffffffffffffffffffff1673ffffffffffffffffffffffffffffffffffffffff1681526020019081526020016000206003015490505b80600260008673ffffffffffffffffffffffffffffffffffffffff1673ffffffffffffffffffffffffffffffffffffffff168152602001908152602001600020600301819055505050505050565b60075481565b60006020528060005260406000206000915054906101000a900460ff1681565b60016020528060005260406000206000915054906101000a900460ff1681565b60001515600260003373ffffffffffffffffffffffffffffffffffffffff1673ffffffffffffffffffffffffffffffffffffffff16815260200190815260200160002060040160029054906101000a900460ff16151514610d80576040517f08c379a0000000000000000000000000000000000000000000000000000000008152600401610d77906126ef565b60405180910390fd5b600115156000808473ffffffffffffffffffffffffffffffffffffffff1673ffffffffffffffffffffffffffffffffffffffff16815260200190815260200160002060009054906101000a900460ff16151514610e12576040517f08c379a0000000000000000000000000000000000000000000000000000000008152600401610e0990612b23565b60405180910390fd5b60001515600260008473ffffffffffffffffffffffffffffffffffffffff1673ffffffffffffffffffffffffffffffffffffffff16815260200190815260200160002060040160029054906101000a900460ff16151514610ea8576040517f08c379a0000000000000000000000000000000000000000000000000000000008152600401610e9f90612bdb565b60405180910390fd5b8063ffffffff16600260008473ffffffffffffffffffffffffffffffffffffffff1673ffffffffffffffffffffffffffffffffffffffff1681526020019081526020016000206000016000828254610f009190612869565b925050819055508063ffffffff16600260003373ffffffffffffffffffffffffffffffffffffffff1673ffffffffffffffffffffffffffffffffffffffff1681526020019081526020016000206000016000828254610f5f9190612951565b925050819055506000600260003373ffffffffffffffffffffffffffffffffffffffff1673ffffffffffffffffffffffffffffffffffffffff16815260200190815260200160002060000154600260003373ffffffffffffffffffffffffffffffffffffffff1673ffffffffffffffffffffffffffffffffffffffff168152602001908152602001600020600101548363ffffffff16610fff9190612985565b6110099190612a0e565b905080600260008573ffffffffffffffffffffffffffffffffffffffff1673ffffffffffffffffffffffffffffffffffffffff168152602001908152602001600020600101600082825461105d9190612869565b9250508190555080600260003373ffffffffffffffffffffffffffffffffffffffff1673ffffffffffffffffffffffffffffffffffffffff16815260200190815260200160002060010160008282546110b69190612951565b925050819055506000600260003373ffffffffffffffffffffffffffffffffffffffff1673ffffffffffffffffffffffffffffffffffffffff16815260200190815260200160002060030154600260008673ffffffffffffffffffffffffffffffffffffffff1673ffffffffffffffffffffffffffffffffffffffff16815260200190815260200160002060030154111561119557600260008573ffffffffffffffffffffffffffffffffffffffff1673ffffffffffffffffffffffffffffffffffffffff1681526020019081526020016000206003015490506111db565b600260003373ffffffffffffffffffffffffffffffffffffffff1673ffffffffffffffffffffffffffffffffffffffff1681526020019081526020016000206003015490505b80600260008673ffffffffffffffffffffffffffffffffffffffff1673ffffffffffffffffffffffffffffffffffffffff1681526020019081526020016000206003018190555050505050565b600360009054906101000a900473ffffffffffffffffffffffffffffffffffffffff1673ffffffffffffffffffffffffffffffffffffffff163373ffffffffffffffffffffffffffffffffffffffff16146112b8576040517f08c379a00000000000000000000000000000000000000000000000000000000081526004016112af90612c6d565b60405180910390fd5b60016000808373ffffffffffffffffffffffffffffffffffffffff1673ffffffffffffffffffffffffffffffffffffffff16815260200190815260200160002060006101000a81548160ff02191690831515021790555050565b60045481565b6006805461132590612808565b80601f016020809104026020016040519081016040528092919081815260200182805461135190612808565b801561139e5780601f106113735761010080835404028352916020019161139e565b820191906000526020600020905b81548152906001019060200180831161138157829003601f168201915b505050505081565b600115156000803373ffffffffffffffffffffffffffffffffffffffff1673ffffffffffffffffffffffffffffffffffffffff16815260200190815260200160002060009054906101000a900460ff16151514611438576040517f08c379a000000000000000000000000000000000000000000000000000000000815260040161142f90612931565b60405180910390fd5b6000600260008373ffffffffffffffffffffffffffffffffffffffff1673ffffffffffffffffffffffffffffffffffffffff16815260200190815260200160002060040160026101000a81548160ff02191690831515021790555050565b600360009054906101000a900473ffffffffffffffffffffffffffffffffffffffff1673ffffffffffffffffffffffffffffffffffffffff163373ffffffffffffffffffffffffffffffffffffffff1614611526576040517f08c379a000000000000000000000000000000000000000000000000000000000815260040161151d90612c6d565b60405180910390fd5b8060048190555050565b60001515600260003373ffffffffffffffffffffffffffffffffffffffff1673ffffffffffffffffffffffffffffffffffffffff16815260200190815260200160002060040160029054906101000a900460ff161515146115c6576040517f08c379a00000000000000000000000000000000000000000000000000000000081526004016115bd906126ef565b60405180910390fd5b600115156000803373ffffffffffffffffffffffffffffffffffffffff1673ffffffffffffffffffffffffffffffffffffffff16815260200190815260200160002060009054906101000a900460ff16151514611658576040517f08c379a000000000000000000000000000000000000000000000000000000000815260040161164f90612d71565b60405180910390fd5b6000670de0b6b3a76400003461166e9190612a0e565b9050620186a08161167f9190612985565b9050600081116116c4576040517f08c379a00000000000000000000000000000000000000000000000000000000081526004016116bb90612e03565b60405180910390fd5b8060026000600360009054906101000a900473ffffffffffffffffffffffffffffffffffffffff1673ffffffffffffffffffffffffffffffffffffffff1673ffffffffffffffffffffffffffffffffffffffff16815260200190815260200160002060000154101561176b576040517f08c379a000000000000000000000000000000000000000000000000000000000815260040161176290612f07565b60405180910390fd5b600360009054906101000a900473ffffffffffffffffffffffffffffffffffffffff1673ffffffffffffffffffffffffffffffffffffffff166108fc349081150290604051600060405180830381858888f193505050501580156117d3573d6000803e3d6000fd5b5080600260003373ffffffffffffffffffffffffffffffffffffffff1673ffffffffffffffffffffffffffffffffffffffff16815260200190815260200160002060000160008282546118269190612869565b925050819055508060026000600360009054906101000a900473ffffffffffffffffffffffffffffffffffffffff1673ffffffffffffffffffffffffffffffffffffffff1673ffffffffffffffffffffffffffffffffffffffff16815260200190815260200160002060000160008282546118a19190612951565b9250508190555060026000600360009054906101000a900473ffffffffffffffffffffffffffffffffffffffff1673ffffffffffffffffffffffffffffffffffffffff1673ffffffffffffffffffffffffffffffffffffffff1681526020019081526020016000206000015460078190555042600260003373ffffffffffffffffffffffffffffffffffffffff1673ffffffffffffffffffffffffffffffffffffffff168152602001908152602001600020600301819055506000600260003373ffffffffffffffffffffffffffffffffffffffff1673ffffffffffffffffffffffffffffffffffffffff16815260200190815260200160002060040160006101000a81548160ff0219169083151502179055506000600260003373ffffffffffffffffffffffffffffffffffffffff1673ffffffffffffffffffffffffffffffffffffffff16815260200190815260200160002060040160016101000a81548160ff02191690831515021790555050565b60001515600260003373ffffffffffffffffffffffffffffffffffffffff1673ffffffffffffffffffffffffffffffffffffffff16815260200190815260200160002060040160029054906101000a900460ff16151514611aa9576040517f08c379a0000000000000000000000000000000000000000000000000000000008152600401611aa0906126ef565b60405180910390fd5b6000600260003373ffffffffffffffffffffffffffffffffffffffff1673ffffffffffffffffffffffffffffffffffffffff1681526020019081526020016000206001015411611b2e576040517f08c379a0000000000000000000000000000000000000000000000000000000008152600401611b259061300b565b60405180910390fd5b600260003373ffffffffffffffffffffffffffffffffffffffff1673ffffffffffffffffffffffffffffffffffffffff16815260200190815260200160002060040160019054906101000a900460ff16611bbd576040517f08c379a0000000000000000000000000000000000000000000000000000000008152600401611bb4906130e9565b60405180910390fd5b600260003373ffffffffffffffffffffffffffffffffffffffff1673ffffffffffffffffffffffffffffffffffffffff16815260200190815260200160002060010154600260003373ffffffffffffffffffffffffffffffffffffffff1673ffffffffffffffffffffffffffffffffffffffff1681526020019081526020016000206002016000828254611c519190612869565b925050819055506000600260003373ffffffffffffffffffffffffffffffffffffffff1673ffffffffffffffffffffffffffffffffffffffff168152602001908152602001600020600101819055506000600260003373ffffffffffffffffffffffffffffffffffffffff1673ffffffffffffffffffffffffffffffffffffffff16815260200190815260200160002060040160016101000a81548160ff02191690831515021790555042600260003373ffffffffffffffffffffffffffffffffffffffff1673ffffffffffffffffffffffffffffffffffffffff16815260200190815260200160002060030181905550565b600360009054906101000a900473ffffffffffffffffffffffffffffffffffffffff1673ffffffffffffffffffffffffffffffffffffffff163373ffffffffffffffffffffffffffffffffffffffff1614611dd4576040517f08c379a0000000000000000000000000000000000000000000000000000000008152600401611dcb90612c6d565b60405180910390fd5b60018060008373ffffffffffffffffffffffffffffffffffffffff1673ffffffffffffffffffffffffffffffffffffffff16815260200190815260200160002060006101000a81548160ff02191690831515021790555050565b60001515600260003373ffffffffffffffffffffffffffffffffffffffff1673ffffffffffffffffffffffffffffffffffffffff16815260200190815260200160002060040160029054906101000a900460ff16151514611ec4576040517f08c379a0000000000000000000000000000000000000000000000000000000008152600401611ebb906126ef565b60405180910390fd5b600260003373ffffffffffffffffffffffffffffffffffffffff1673ffffffffffffffffffffffffffffffffffffffff16815260200190815260200160002060040160009054906101000a900460ff1615611f1e57600080fd5b600454600260003373ffffffffffffffffffffffffffffffffffffffff1673ffffffffffffffffffffffffffffffffffffffff16815260200190815260200160002060000154611f6e9190612985565b600260003373ffffffffffffffffffffffffffffffffffffffff1673ffffffffffffffffffffffffffffffffffffffff1681526020019081526020016000206001016000828254611fbf9190612869565b925050819055506001600260003373ffffffffffffffffffffffffffffffffffffffff1673ffffffffffffffffffffffffffffffffffffffff16815260200190815260200160002060040160006101000a81548160ff021916908315150217905550565b600360009054906101000a900473ffffffffffffffffffffffffffffffffffffffff1673ffffffffffffffffffffffffffffffffffffffff163373ffffffffffffffffffffffffffffffffffffffff16146120b3576040517f08c379a00000000000000000000000000000000000000000000000000000000081526004016120aa90612c6d565b60405180910390fd5b620186a0816120c29190613109565b63ffffffff1660026000600360009054906101000a900473ffffffffffffffffffffffffffffffffffffffff1673ffffffffffffffffffffffffffffffffffffffff1673ffffffffffffffffffffffffffffffffffffffff168152602001908152602001600020600001600082825461213b9190612869565b9250508190555060026000600360009054906101000a900473ffffffffffffffffffffffffffffffffffffffff1673ffffffffffffffffffffffffffffffffffffffff1673ffffffffffffffffffffffffffffffffffffffff16815260200190815260200160002060000154600781905550620186a0816121bc9190613109565b63ffffffff16600860008282546121d39190612869565b925050819055507f95aaaf06ed91fe9ef18fc1b4b5fe7fb5ad57088b42755ddc8dc1d6cba38c5fcb816040516122099190613156565b60405180910390a150565b600115156000803373ffffffffffffffffffffffffffffffffffffffff1673ffffffffffffffffffffffffffffffffffffffff16815260200190815260200160002060009054906101000a900460ff161515146122a6576040517f08c379a000000000000000000000000000000000000000000000000000000000815260040161229d90612931565b60405180910390fd5b6001600260008373ffffffffffffffffffffffffffffffffffffffff1673ffffffffffffffffffffffffffffffffffffffff16815260200190815260200160002060040160026101000a81548160ff02191690831515021790555050565b600081519050919050565b600082825260208201905092915050565b60005b8381101561233e578082015181840152602081019050612323565b8381111561234d576000848401525b50505050565b6000601f19601f8301169050919050565b600061236f82612304565b612379818561230f565b9350612389818560208601612320565b61239281612353565b840191505092915050565b600060208201905081810360008301526123b78184612364565b905092915050565b60008115159050919050565b6123d4816123bf565b82525050565b60006020820190506123ef60008301846123cb565b92915050565b600080fd5b600073ffffffffffffffffffffffffffffffffffffffff82169050919050565b6000612425826123fa565b9050919050565b6124358161241a565b811461244057600080fd5b50565b6000813590506124528161242c565b92915050565b60006020828403121561246e5761246d6123f5565b5b600061247c84828501612443565b91505092915050565b6000819050919050565b61249881612485565b82525050565b600060e0820190506124b3600083018a61248f565b6124c0602083018961248f565b6124cd604083018861248f565b6124da606083018761248f565b6124e760808301866123cb565b6124f460a08301856123cb565b61250160c08301846123cb565b98975050505050505050565b600063ffffffff82169050919050565b6125268161250d565b811461253157600080fd5b50565b6000813590506125438161251d565b92915050565b600080600060608486031215612562576125616123f5565b5b600061257086828701612443565b935050602061258186828701612443565b925050604061259286828701612534565b9150509250925092565b60006020820190506125b1600083018461248f565b92915050565b600080604083850312156125ce576125cd6123f5565b5b60006125dc85828601612443565b92505060206125ed85828601612534565b9150509250929050565b61260081612485565b811461260b57600080fd5b50565b60008135905061261d816125f7565b92915050565b600060208284031215612639576126386123f5565b5b60006126478482850161260e565b91505092915050565b600060208284031215612666576126656123f5565b5b600061267484828501612534565b91505092915050565b7f536f727279212c20596f7572206173736574732068617665206265656e20667260008201527f6f7a656e206279206120726567756c61746f7279206167656e63792e00000000602082015250565b60006126d9603c8361230f565b91506126e48261267d565b604082019050919050565b60006020820190508181036000830152612708816126cc565b9050919050565b7f54686520616d6f756e74206f6620796f757220696e7465726573742062616c6160008201527f6e63652069732063757272656e746c7920302e00000000000000000000000000602082015250565b600061276b60338361230f565b91506127768261270f565b604082019050919050565b6000602082019050818103600083015261279a8161275e565b9050919050565b6127aa8161241a565b82525050565b60006040820190506127c560008301856127a1565b6127d2602083018461248f565b9392505050565b7f4e487b7100000000000000000000000000000000000000000000000000000000600052602260045260246000fd5b6000600282049050600182168061282057607f821691505b60208210811415612834576128336127d9565b5b50919050565b7f4e487b7100000000000000000000000000000000000000000000000000000000600052601160045260246000fd5b600061287482612485565b915061287f83612485565b9250827fffffffffffffffffffffffffffffffffffffffffffffffffffffffffffffffff038211156128b4576128b361283a565b5b828201905092915050565b7f536f727279212c2053656e64657227732061646472657373206973206e6f742060008201527f6120726567756c61746f7279206167656e63792e000000000000000000000000602082015250565b600061291b60348361230f565b9150612926826128bf565b604082019050919050565b6000602082019050818103600083015261294a8161290e565b9050919050565b600061295c82612485565b915061296783612485565b92508282101561297a5761297961283a565b5b828203905092915050565b600061299082612485565b915061299b83612485565b9250817fffffffffffffffffffffffffffffffffffffffffffffffffffffffffffffffff04831182151516156129d4576129d361283a565b5b828202905092915050565b7f4e487b7100000000000000000000000000000000000000000000000000000000600052601260045260246000fd5b6000612a1982612485565b9150612a2483612485565b925082612a3457612a336129df565b5b828204905092915050565b7f536f727279212c20526563656976657227732061646472657373206973206e6f60008201527f742061636365707465642c206b696e646c792068617665207468656d20636f6d60208201527f706c657465204b59432f414d4c207665726966696374696f6e2077697468204760408201527f72616e64696461206265666f726520617474656d7074696e67207472616e736660608201527f65722e0000000000000000000000000000000000000000000000000000000000608082015250565b6000612b0d60838361230f565b9150612b1882612a3f565b60a082019050919050565b60006020820190508181036000830152612b3c81612b00565b9050919050565b7f536f727279212c20526563697069656e7427732061737365747320686176652060008201527f6265656e2066726f7a656e206279206120726567756c61746f7279206167656e60208201527f63792c20746865792063616e6e6f74207265636569766520746f6b656e732e00604082015250565b6000612bc5605f8361230f565b9150612bd082612b43565b606082019050919050565b60006020820190508181036000830152612bf481612bb8565b9050919050565b7f536f727279212c2053656e646572206973206e6f7420617574686f72697a656460008201527f20666f72207468697320616374696f6e2e000000000000000000000000000000602082015250565b6000612c5760318361230f565b9150612c6282612bfb565b604082019050919050565b60006020820190508181036000830152612c8681612c4a565b9050919050565b7f536f727279212c20596f75722061646472657373206973206e6f74206163636560008201527f707465642c206b696e646c7920636f6d706c65746520796f7572204b59432f4160208201527f4d4c20766572696669636174696f6e2077697468204772616e6469646120626560408201527f666f726520617474656d7074696e6720746f206d616b6520707572636861736560608201527f2e00000000000000000000000000000000000000000000000000000000000000608082015250565b6000612d5b60818361230f565b9150612d6682612c8d565b60a082019050919050565b60006020820190508181036000830152612d8a81612d4e565b9050919050565b7f536f6f7279212c204e6f2066756e647320686173206265656e2073656e74207460008201527f6f20707572636861736520746f6b656e7320776974682e000000000000000000602082015250565b6000612ded60378361230f565b9150612df882612d91565b604082019050919050565b60006020820190508181036000830152612e1c81612de0565b9050919050565b7f4f6f7073212c20596f7520646f206e6f74206861766520656e6f75676820746f60008201527f6b656e7320617661696c61626c6520666f722070757263686173652c206b696e60208201527f646c792072652d636865636b2074686520616d6f756e74206f6620746f6b656e60408201527f20617661696c61626c6520616e6420646563726561736520796f75722070757260608201527f636861736520616d6f756e742e00000000000000000000000000000000000000608082015250565b6000612ef1608d8361230f565b9150612efc82612e23565b60a082019050919050565b60006020820190508181036000830152612f2081612ee4565b9050919050565b7f536f727279212c20596f757220616363756d6d756c6174656420696e7465726560008201527f737420616d6f756e742069732063757272656e746c7920302c206b696e646c7960208201527f20636c69636b2063616c63756c617465416363756d6d756c61746564496e746560408201527f7265737420746f2066696e64206f757420686f77206d75636820796f7520686160608201527f766520616363756d6d756c617465642e00000000000000000000000000000000608082015250565b6000612ff560908361230f565b915061300082612f27565b60a082019050919050565b6000602082019050818103600083015261302481612fe8565b9050919050565b7f54686520696e74657265737420686f6c64696e6720706572696f64206861732060008201527f6e6f74207061737365642c206b696e646c79207761697420756e74696c20796f60208201527f75722061737365727461626c6520696e746572657374206461746520746f206160408201527f7373657274206f77656420696e7465726573742e000000000000000000000000606082015250565b60006130d360748361230f565b91506130de8261302b565b608082019050919050565b60006020820190508181036000830152613102816130c6565b9050919050565b60006131148261250d565b915061311f8361250d565b92508163ffffffff048311821515161561313c5761313b61283a565b5b828202905092915050565b6131508161250d565b82525050565b600060208201905061316b6000830184613147565b9291505056fea2646970667358221220b9de4c774d3421de6df38b74fa0768f568526c64bce0dfad6901374c6db6964d64736f6c63430008090033",
    "linkReferences": {},
    "deployedLinkReferences": {}
}